{
  "contractName": "IPFSInbox",
  "abi": [
    {
      "anonymous": false,
      "inputs": [
        {
          "indexed": false,
          "name": "_ipfsHash",
          "type": "string"
        },
        {
          "indexed": false,
          "name": "_keywords",
          "type": "string"
        }
      ],
      "name": "claimFileUploaded",
      "type": "event",
      "signature": "0x1be2787de05d18757035a048737f50012d40289256b42d51fae7a09c5ee6d8cc"
    },
    {
      "constant": true,
      "inputs": [],
      "name": "getNumOffers",
      "outputs": [
        {
          "name": "",
          "type": "uint256"
        }
      ],
      "payable": false,
      "stateMutability": "view",
      "type": "function",
      "signature": "0x920e247f"
    },
    {
      "constant": false,
      "inputs": [
        {
          "name": "_ipfsHash",
          "type": "string"
        },
        {
          "name": "_keywords",
          "type": "string"
        }
      ],
      "name": "newOffer",
      "outputs": [],
      "payable": false,
      "stateMutability": "nonpayable",
      "type": "function",
      "signature": "0x76e7210d"
    },
    {
      "constant": true,
      "inputs": [
        {
          "name": "_id",
          "type": "uint256"
        }
      ],
      "name": "getOfferById",
      "outputs": [
        {
          "name": "",
          "type": "string"
        }
      ],
      "payable": false,
      "stateMutability": "view",
      "type": "function",
      "signature": "0x38931883"
    },
    {
      "constant": false,
      "inputs": [
        {
          "name": "_from",
          "type": "address"
        },
        {
          "name": "_toAccounts",
          "type": "address[]"
        }
      ],
      "name": "send",
      "outputs": [],
      "payable": true,
      "stateMutability": "payable",
      "type": "function",
      "signature": "0x2d00ec2a"
    }
  ],
  "bytecode": "0x608060405234801561001057600080fd5b5061073b806100206000396000f3fe608060405260043610610062576000357c0100000000000000000000000000000000000000000000000000000000900463ffffffff1680632d00ec2a14610067578063389318831461013f57806376e7210d146101f3578063920e247f14610352575b600080fd5b61013d6004803603604081101561007d57600080fd5b81019080803573ffffffffffffffffffffffffffffffffffffffff169060200190929190803590602001906401000000008111156100ba57600080fd5b8201836020820111156100cc57600080fd5b803590602001918460208302840111640100000000831117156100ee57600080fd5b919080806020026020016040519081016040528093929190818152602001838360200280828437600081840152601f19601f82011690508083019250505050505050919291929050505061037d565b005b34801561014b57600080fd5b506101786004803603602081101561016257600080fd5b8101908080359060200190929190505050610422565b6040518080602001828103825283818151815260200191508051906020019080838360005b838110156101b857808201518184015260208101905061019d565b50505050905090810190601f1680156101e55780820380516001836020036101000a031916815260200191505b509250505060405180910390f35b3480156101ff57600080fd5b506103506004803603604081101561021657600080fd5b810190808035906020019064010000000081111561023357600080fd5b82018360208201111561024557600080fd5b8035906020019184600183028401116401000000008311171561026757600080fd5b91908080601f016020809104026020016040519081016040528093929190818152602001838380828437600081840152601f19601f820116905080830192505050505050509192919290803590602001906401000000008111156102ca57600080fd5b8201836020820111156102dc57600080fd5b803590602001918460018302840111640100000000831117156102fe57600080fd5b91908080601f016020809104026020016040519081016040528093929190818152602001838380828437600081840152601f19601f8201169050808301925050505050505091929192905050506104da565b005b34801561035e57600080fd5b50610367610661565b6040518082815260200191505060405180910390f35b60003411151561038c57600080fd5b6000815190506000813481151561039f57fe5b04905060008090505b8281101561041b5783818151811015156103be57fe5b9060200190602002015173ffffffffffffffffffffffffffffffffffffffff166108fc839081150290604051600060405180830381858888f1935050505015801561040d573d6000803e3d6000fd5b5080806001019150506103a8565b5050505050565b6060600160008381526020019081526020016000206000018054600181600116156101000203166002900480601f0160208091040260200160405190810160405280929190818152602001828054600181600116156101000203166002900480156104ce5780601f106104a3576101008083540402835291602001916104ce565b820191906000526020600020905b8154815290600101906020018083116104b157829003601f168201915b50505050509050919050565b600080600081548092919060010191905055905060408051908101604052808481526020018381525060016000838152602001908152602001600020600082015181600001908051906020019061053292919061066a565b50602082015181600101908051906020019061054f92919061066a565b509050507f1be2787de05d18757035a048737f50012d40289256b42d51fae7a09c5ee6d8cc8383604051808060200180602001838103835285818151815260200191508051906020019080838360005b838110156105ba57808201518184015260208101905061059f565b50505050905090810190601f1680156105e75780820380516001836020036101000a031916815260200191505b50838103825284818151815260200191508051906020019080838360005b83811015610620578082015181840152602081019050610605565b50505050905090810190601f16801561064d5780820380516001836020036101000a031916815260200191505b5094505050505060405180910390a1505050565b60008054905090565b828054600181600116156101000203166002900490600052602060002090601f016020900481019282601f106106ab57805160ff19168380011785556106d9565b828001600101855582156106d9579182015b828111156106d85782518255916020019190600101906106bd565b5b5090506106e691906106ea565b5090565b61070c91905b808211156107085760008160009055506001016106f0565b5090565b9056fea165627a7a72305820626f16e148137f18819a297880710fd2a2d117bb9cd0c0bb5b18188910ed8ae90029",
  "source": "pragma solidity ^0.5.0;\n\ncontract IPFSInbox {\n    \n    // Offer\n    struct Offer {\n        string ipfsHash;\n        string keywords;\n    }\n\n    uint numOffers;\n    mapping (uint => Offer) offers;\n\n    function getNumOffers()\n        public\n        view\n        returns (uint)\n    {\n        return numOffers;\n    }\n\n    function newOffer(string memory _ipfsHash, string memory _keywords) \n        public \n    {\n        uint256 offerID = numOffers++;\n        offers[offerID] = Offer(_ipfsHash, _keywords);\n\n        emit claimFileUploaded(_ipfsHash, _keywords);\n    }\n\n    function getOfferById(uint _id)\n        public\n        view \n        returns (string memory) \n    {\n        return offers[_id].ipfsHash;\n    }\n\n    function send(address _from, address payable[] memory _toAccounts)\n        public \n        payable \n    {\n        require(msg.value > 0);\n\n        uint numAccounts = _toAccounts.length;\n        uint amountToTransfer = msg.value / numAccounts;\n\n        for (uint i = 0; i < numAccounts; i++) {\n            _toAccounts[i].transfer(amountToTransfer);\n        }      \n    }\n\n    function recover(bytes32 hash, bytes memory signature)\n        internal\n        pure\n        returns (address)\n    {\n        bytes32 r;\n        bytes32 s;\n        uint8 v;\n\n        if (signature.length != 65) {\n            return (address(0));\n        }\n\n        assembly {\n            r := mload(add(signature, 0x20))\n            s := mload(add(signature, 0x40))\n            v := byte(0, mload(add(signature, 0x60)))\n        }\n\n        if (v < 27) {\n            v += 27;\n        }\n\n        if (v != 27 && v != 28) {\n            return (address(0));\n        } else {\n            return ecrecover(hash, v, r, s);\n        }\n\n    }\n    \n    // Event\n    event claimFileUploaded(string _ipfsHash, string _keywords);\n\n}\n",
  "sourcePath": "/home/usuario/Escritorio/TFG/ipfs-ethereum-tutorial/contracts/IPFSInbox.sol",
  "compiler": {
    "name": "solc",
    "version": "0.5.0+commit.1d4f565a.Emscripten.clang"
  },
  "schemaVersion": "3.0.1",
  "updatedAt": "2019-05-22T15:04:41.316Z",
  "devdoc": {
    "methods": {}
  },
  "userdoc": {
    "methods": {}
  }
}