{
  "contractName": "IPFSInbox",
  "abi": [
    {
      "inputs": [],
      "payable": false,
      "stateMutability": "nonpayable",
      "type": "constructor"
    },
    {
      "anonymous": false,
      "inputs": [
        {
          "indexed": false,
          "name": "_ipfsHash",
          "type": "string"
        },
        {
          "indexed": false,
          "name": "_address",
          "type": "address"
        }
      ],
      "name": "ipfsUploaded",
      "type": "event"
    },
    {
      "anonymous": false,
      "inputs": [
        {
          "indexed": false,
          "name": "response",
          "type": "string"
        }
      ],
      "name": "inboxResponse",
      "type": "event"
    },
    {
      "constant": false,
      "inputs": [
        {
          "name": "_ipfsHash",
          "type": "string"
        }
      ],
      "name": "uploadIPFS",
      "outputs": [],
      "payable": false,
      "stateMutability": "nonpayable",
      "type": "function"
    },
    {
      "constant": false,
      "inputs": [],
      "name": "getIPFS",
      "outputs": [],
      "payable": false,
      "stateMutability": "nonpayable",
      "type": "function"
    }
  ],
  "bytecode": "0x608060405234801561001057600080fd5b506104c0806100206000396000f30060806040526004361061004c576000357c0100000000000000000000000000000000000000000000000000000000900463ffffffff1680634efe2d1e1461005157806390d523cb14610068575b600080fd5b34801561005d57600080fd5b506100666100d1565b005b34801561007457600080fd5b506100cf600480360381019080803590602001908201803590602001908080601f01602080910402602001604051908101604052809392919081815260200183838082843782019150505050505091929192905050506102c3565b005b60606000803373ffffffffffffffffffffffffffffffffffffffff1673ffffffffffffffffffffffffffffffffffffffff1681526020019081526020016000208054600181600116156101000203166002900480601f0160208091040260200160405190810160405280929190818152602001828054600181600116156101000203166002900480156101a55780601f1061017a576101008083540402835291602001916101a5565b820191906000526020600020905b81548152906001019060200180831161018857829003601f168201915b50505050509050600081511415610223577f2974ec83b4de9f76155d0c3e88bd3c0645c56c1795807f37d3f9e95caafeee5760405180806020018281038252600b8152602001807f456d70747920496e626f7800000000000000000000000000000000000000000081525060200191505060405180910390a16102c0565b7f2974ec83b4de9f76155d0c3e88bd3c0645c56c1795807f37d3f9e95caafeee57816040518080602001828103825283818151815260200191508051906020019080838360005b8381101561028557808201518184015260208101905061026a565b50505050905090810190601f1680156102b25780820380516001836020036101000a031916815260200191505b509250505060405180910390a15b50565b6000339050816000808373ffffffffffffffffffffffffffffffffffffffff1673ffffffffffffffffffffffffffffffffffffffff168152602001908152602001600020908051906020019061031a9291906103ef565b507f2c6afc6ed4506bf5cfc1ce20f3a0fca33228207330e1d12513742190d620c8ff828260405180806020018373ffffffffffffffffffffffffffffffffffffffff1673ffffffffffffffffffffffffffffffffffffffff168152602001828103825284818151815260200191508051906020019080838360005b838110156103b0578082015181840152602081019050610395565b50505050905090810190601f1680156103dd5780820380516001836020036101000a031916815260200191505b50935050505060405180910390a15050565b828054600181600116156101000203166002900490600052602060002090601f016020900481019282601f1061043057805160ff191683800117855561045e565b8280016001018555821561045e579182015b8281111561045d578251825591602001919060010190610442565b5b50905061046b919061046f565b5090565b61049191905b8082111561048d576000816000905550600101610475565b5090565b905600a165627a7a723058208a619331b120a4b768f22e036dcccc93e31b9ccf8308160316d15fa1de9413e40029",
  "source": "pragma solidity 0.4.24;\n\ncontract IPFSInbox {\n    \n    // Structures\n    mapping (address => string) ipfsInbox;\n    \n    // Events\n    event ipfsUploaded(string _ipfsHash, address _address);\n    event inboxResponse(string response);\n    \n    // Modifiers\n    modifier notFull (string _string) {bytes memory stringTest =  bytes(_string); require (stringTest.length == 0); _;}\n    \n    // An empty constructor that creates an instance of the contract\n    constructor() public {}\n    \n    function uploadIPFS(string _ipfsHash) public\n    {   \n        address owner = msg.sender;\n        ipfsInbox[owner] = _ipfsHash;\n        emit ipfsUploaded(_ipfsHash, owner);\n    }\n    \n    function getIPFS() public\n    {\n        string memory ipfs_hash = ipfsInbox[msg.sender];\n        if(bytes(ipfs_hash).length == 0) {\n            emit inboxResponse(\"Empty Inbox\");\n        } else {\n            emit inboxResponse(ipfs_hash);\n        }\n    }\n}\n",
  "sourcePath": "/home/usuario/Escritorio/TFG/ipfs-ethereum-tutorial/contracts/IPFSInbox.sol",
  "compiler": {
    "name": "solc",
    "version": "0.4.24+commit.e67f0147.Emscripten.clang"
  },
  "schemaVersion": "2.0.1",
  "updatedAt": "2018-12-03T11:44:15.492Z"
}