{
  "contractName": "IPFSInbox",
  "abi": [
    {
      "anonymous": false,
      "inputs": [
        {
          "indexed": false,
          "name": "_ipfsHash",
          "type": "string"
        },
        {
          "indexed": false,
          "name": "_keywords",
          "type": "string"
        }
      ],
      "name": "claimFileUploaded",
      "type": "event",
      "signature": "0x1be2787de05d18757035a048737f50012d40289256b42d51fae7a09c5ee6d8cc"
    },
    {
      "constant": false,
      "inputs": [
        {
          "name": "_ipfsHash",
          "type": "string"
        },
        {
          "name": "_keywords",
          "type": "string"
        }
      ],
      "name": "newOffer",
      "outputs": [],
      "payable": false,
      "stateMutability": "nonpayable",
      "type": "function",
      "signature": "0x76e7210d"
    },
    {
      "constant": true,
      "inputs": [
        {
          "name": "_id",
          "type": "uint256"
        }
      ],
      "name": "getOfferById",
      "outputs": [
        {
          "name": "",
          "type": "string"
        }
      ],
      "payable": false,
      "stateMutability": "view",
      "type": "function",
      "signature": "0x38931883"
    },
    {
      "constant": false,
      "inputs": [
        {
          "name": "_from",
          "type": "address"
        },
        {
          "name": "_toAccounts",
          "type": "address[]"
        }
      ],
      "name": "send",
      "outputs": [],
      "payable": true,
      "stateMutability": "payable",
      "type": "function",
      "signature": "0x2d00ec2a"
    }
  ],
  "bytecode": "0x608060405234801561001057600080fd5b506106fc806100206000396000f3fe608060405260043610610057576000357c0100000000000000000000000000000000000000000000000000000000900463ffffffff1680632d00ec2a1461005c578063389318831461013457806376e7210d146101e8575b600080fd5b6101326004803603604081101561007257600080fd5b81019080803573ffffffffffffffffffffffffffffffffffffffff169060200190929190803590602001906401000000008111156100af57600080fd5b8201836020820111156100c157600080fd5b803590602001918460208302840111640100000000831117156100e357600080fd5b919080806020026020016040519081016040528093929190818152602001838360200280828437600081840152601f19601f820116905080830192505050505050509192919290505050610347565b005b34801561014057600080fd5b5061016d6004803603602081101561015757600080fd5b81019080803590602001909291905050506103ec565b6040518080602001828103825283818151815260200191508051906020019080838360005b838110156101ad578082015181840152602081019050610192565b50505050905090810190601f1680156101da5780820380516001836020036101000a031916815260200191505b509250505060405180910390f35b3480156101f457600080fd5b506103456004803603604081101561020b57600080fd5b810190808035906020019064010000000081111561022857600080fd5b82018360208201111561023a57600080fd5b8035906020019184600183028401116401000000008311171561025c57600080fd5b91908080601f016020809104026020016040519081016040528093929190818152602001838380828437600081840152601f19601f820116905080830192505050505050509192919290803590602001906401000000008111156102bf57600080fd5b8201836020820111156102d157600080fd5b803590602001918460018302840111640100000000831117156102f357600080fd5b91908080601f016020809104026020016040519081016040528093929190818152602001838380828437600081840152601f19601f8201169050808301925050505050505091929192905050506104a4565b005b60003411151561035657600080fd5b6000815190506000813481151561036957fe5b04905060008090505b828110156103e557838181518110151561038857fe5b9060200190602002015173ffffffffffffffffffffffffffffffffffffffff166108fc839081150290604051600060405180830381858888f193505050501580156103d7573d6000803e3d6000fd5b508080600101915050610372565b5050505050565b6060600160008381526020019081526020016000206000018054600181600116156101000203166002900480601f0160208091040260200160405190810160405280929190818152602001828054600181600116156101000203166002900480156104985780601f1061046d57610100808354040283529160200191610498565b820191906000526020600020905b81548152906001019060200180831161047b57829003601f168201915b50505050509050919050565b60008060008154809291906001019190505590506040805190810160405280848152602001838152506001600083815260200190815260200160002060008201518160000190805190602001906104fc92919061062b565b50602082015181600101908051906020019061051992919061062b565b509050507f1be2787de05d18757035a048737f50012d40289256b42d51fae7a09c5ee6d8cc8383604051808060200180602001838103835285818151815260200191508051906020019080838360005b83811015610584578082015181840152602081019050610569565b50505050905090810190601f1680156105b15780820380516001836020036101000a031916815260200191505b50838103825284818151815260200191508051906020019080838360005b838110156105ea5780820151818401526020810190506105cf565b50505050905090810190601f1680156106175780820380516001836020036101000a031916815260200191505b5094505050505060405180910390a1505050565b828054600181600116156101000203166002900490600052602060002090601f016020900481019282601f1061066c57805160ff191683800117855561069a565b8280016001018555821561069a579182015b8281111561069957825182559160200191906001019061067e565b5b5090506106a791906106ab565b5090565b6106cd91905b808211156106c95760008160009055506001016106b1565b5090565b9056fea165627a7a72305820daf51fecaab836bcf542679b2afa5e116623d2f8dd7bf76829390c8c344ce3aa0029",
  "source": "pragma solidity ^0.5.0;\n\ncontract IPFSInbox {\n    \n    // Offer\n    struct Offer {\n        string ipfsHash;\n        string keywords;\n    }\n\n    uint numOffers;\n    mapping (uint => Offer) offers;\n\n    function newOffer(string memory _ipfsHash, string memory _keywords) public {\n        uint256 offerID = numOffers++;\n        offers[offerID] = Offer(_ipfsHash, _keywords);\n\n        emit claimFileUploaded(_ipfsHash, _keywords);\n    }\n\n    function getOfferById(uint _id) public view returns (string memory) {\n        return offers[_id].ipfsHash;\n    }\n\n    function send(address _from, address payable[] memory _toAccounts) public payable {\n        require(msg.value > 0);\n\n        uint numAccounts = _toAccounts.length;\n        uint amountToTransfer = msg.value / numAccounts;\n\n        for (uint i = 0; i < numAccounts; i++) {\n            _toAccounts[i].transfer(amountToTransfer);\n        }      \n    }\n    \n    // Event\n    event claimFileUploaded(string _ipfsHash, string _keywords);\n\n}\n",
  "sourcePath": "/home/usuario/Escritorio/TFG/ipfs-ethereum-tutorial/contracts/IPFSInbox.sol",
  "compiler": {
    "name": "solc",
    "version": "0.5.0+commit.1d4f565a.Emscripten.clang"
  },
  "schemaVersion": "3.0.1",
  "updatedAt": "2019-05-14T15:59:22.042Z",
  "devdoc": {
    "methods": {}
  },
  "userdoc": {
    "methods": {}
  }
}