{
  "contractName": "IPFSInbox",
  "abi": [
    {
      "inputs": [],
      "payable": false,
      "stateMutability": "nonpayable",
      "type": "constructor",
      "signature": "constructor"
    },
    {
      "anonymous": false,
      "inputs": [
        {
          "indexed": false,
          "name": "_ipfsHash",
          "type": "string"
        },
        {
          "indexed": false,
          "name": "_keywords",
          "type": "string"
        }
      ],
      "name": "claimFileUploaded",
      "type": "event",
      "signature": "0x1be2787de05d18757035a048737f50012d40289256b42d51fae7a09c5ee6d8cc"
    },
    {
      "anonymous": false,
      "inputs": [
        {
          "indexed": false,
          "name": "_ipfsHash",
          "type": "string"
        },
        {
          "indexed": false,
          "name": "_address",
          "type": "address"
        }
      ],
      "name": "ipfsUploaded",
      "type": "event",
      "signature": "0x2c6afc6ed4506bf5cfc1ce20f3a0fca33228207330e1d12513742190d620c8ff"
    },
    {
      "anonymous": false,
      "inputs": [
        {
          "indexed": false,
          "name": "response",
          "type": "string"
        }
      ],
      "name": "inboxResponse",
      "type": "event",
      "signature": "0x2974ec83b4de9f76155d0c3e88bd3c0645c56c1795807f37d3f9e95caafeee57"
    },
    {
      "constant": false,
      "inputs": [
        {
          "name": "_ipfsHash",
          "type": "string"
        },
        {
          "name": "_keywords",
          "type": "string"
        }
      ],
      "name": "newOffer",
      "outputs": [],
      "payable": false,
      "stateMutability": "nonpayable",
      "type": "function",
      "signature": "0x76e7210d"
    },
    {
      "constant": false,
      "inputs": [
        {
          "name": "_ipfsHash",
          "type": "string"
        }
      ],
      "name": "uploadIPFS",
      "outputs": [],
      "payable": false,
      "stateMutability": "nonpayable",
      "type": "function",
      "signature": "0x90d523cb"
    },
    {
      "constant": false,
      "inputs": [],
      "name": "getIPFS",
      "outputs": [],
      "payable": false,
      "stateMutability": "nonpayable",
      "type": "function",
      "signature": "0x4efe2d1e"
    }
  ],
  "bytecode": "0x608060405234801561001057600080fd5b50610891806100206000396000f3fe608060405260043610610057576000357c0100000000000000000000000000000000000000000000000000000000900463ffffffff1680634efe2d1e1461005c57806376e7210d1461007357806390d523cb146101d2575b600080fd5b34801561006857600080fd5b5061007161029a565b005b34801561007f57600080fd5b506101d06004803603604081101561009657600080fd5b81019080803590602001906401000000008111156100b357600080fd5b8201836020820111156100c557600080fd5b803590602001918460018302840111640100000000831117156100e757600080fd5b91908080601f016020809104026020016040519081016040528093929190818152602001838380828437600081840152601f19601f8201169050808301925050505050505091929192908035906020019064010000000081111561014a57600080fd5b82018360208201111561015c57600080fd5b8035906020019184600183028401116401000000008311171561017e57600080fd5b91908080601f016020809104026020016040519081016040528093929190818152602001838380828437600081840152601f19601f82011690508083019250505050505050919291929050505061048c565b005b3480156101de57600080fd5b50610298600480360360208110156101f557600080fd5b810190808035906020019064010000000081111561021257600080fd5b82018360208201111561022457600080fd5b8035906020019184600183028401116401000000008311171561024657600080fd5b91908080601f016020809104026020016040519081016040528093929190818152602001838380828437600081840152601f19601f820116905080830192505050505050509192919290505050610614565b005b60606000803373ffffffffffffffffffffffffffffffffffffffff1673ffffffffffffffffffffffffffffffffffffffff1681526020019081526020016000208054600181600116156101000203166002900480601f01602080910402602001604051908101604052809291908181526020018280546001816001161561010002031660029004801561036e5780601f106103435761010080835404028352916020019161036e565b820191906000526020600020905b81548152906001019060200180831161035157829003601f168201915b505050505090506000815114156103ec577f2974ec83b4de9f76155d0c3e88bd3c0645c56c1795807f37d3f9e95caafeee5760405180806020018281038252600b8152602001807f456d70747920496e626f7800000000000000000000000000000000000000000081525060200191505060405180910390a1610489565b7f2974ec83b4de9f76155d0c3e88bd3c0645c56c1795807f37d3f9e95caafeee57816040518080602001828103825283818151815260200191508051906020019080838360005b8381101561044e578082015181840152602081019050610433565b50505050905090810190601f16801561047b5780820380516001836020036101000a031916815260200191505b509250505060405180910390a15b50565b6000600160008154809291906001019190505590506040805190810160405280848152602001838152506002600083815260200190815260200160002060008201518160000190805190602001906104e5929190610740565b506020820151816001019080519060200190610502929190610740565b509050507f1be2787de05d18757035a048737f50012d40289256b42d51fae7a09c5ee6d8cc8383604051808060200180602001838103835285818151815260200191508051906020019080838360005b8381101561056d578082015181840152602081019050610552565b50505050905090810190601f16801561059a5780820380516001836020036101000a031916815260200191505b50838103825284818151815260200191508051906020019080838360005b838110156105d35780820151818401526020810190506105b8565b50505050905090810190601f1680156106005780820380516001836020036101000a031916815260200191505b5094505050505060405180910390a1505050565b6000339050816000808373ffffffffffffffffffffffffffffffffffffffff1673ffffffffffffffffffffffffffffffffffffffff168152602001908152602001600020908051906020019061066b9291906107c0565b507f2c6afc6ed4506bf5cfc1ce20f3a0fca33228207330e1d12513742190d620c8ff828260405180806020018373ffffffffffffffffffffffffffffffffffffffff1673ffffffffffffffffffffffffffffffffffffffff168152602001828103825284818151815260200191508051906020019080838360005b838110156107015780820151818401526020810190506106e6565b50505050905090810190601f16801561072e5780820380516001836020036101000a031916815260200191505b50935050505060405180910390a15050565b828054600181600116156101000203166002900490600052602060002090601f016020900481019282601f1061078157805160ff19168380011785556107af565b828001600101855582156107af579182015b828111156107ae578251825591602001919060010190610793565b5b5090506107bc9190610840565b5090565b828054600181600116156101000203166002900490600052602060002090601f016020900481019282601f1061080157805160ff191683800117855561082f565b8280016001018555821561082f579182015b8281111561082e578251825591602001919060010190610813565b5b50905061083c9190610840565b5090565b61086291905b8082111561085e576000816000905550600101610846565b5090565b9056fea165627a7a72305820f821e7fa3e4130f7b8158b6e14100dab49155b691c059740d55638c06544cc170029",
  "source": "pragma solidity ^0.5.0;\n\ncontract IPFSInbox {\n    \n    // Structures\n    mapping (address => string) ipfsInbox;\n\n    // Offer\n    struct Offer {\n        string ipfsHash;\n        string keywords;\n    }\n\n    uint numOffers;\n    mapping (uint => Offer) offers;\n\n    function newOffer(string memory _ipfsHash, string memory _keywords) public {\n        uint256 offerID = numOffers++;\n        offers[offerID] = Offer(_ipfsHash, _keywords);\n\n        emit claimFileUploaded(_ipfsHash, _keywords);\n    }\n\n    // function getOffersByScheme(string memory _keywords) public {\n\n    // }\n    \n    // Events\n    event claimFileUploaded(string _ipfsHash, string _keywords);\n\n    event ipfsUploaded(string _ipfsHash, address _address);\n    event inboxResponse(string response);\n    \n    // Modifiers\n    //modifier notFull (string _string) {bytes memory stringTest =  bytes(_string); require (stringTest.length == 0); _;}\n    \n    // An empty constructor that creates an instance of the contract\n    constructor() public {}\n    \n    function uploadIPFS(string memory _ipfsHash) public\n    {   \n        address owner = msg.sender;\n        ipfsInbox[owner] = _ipfsHash;\n        emit ipfsUploaded(_ipfsHash, owner);\n    }\n    \n    function getIPFS() public\n    {\n        string memory ipfs_hash = ipfsInbox[msg.sender];\n        if(bytes(ipfs_hash).length == 0) {\n            emit inboxResponse(\"Empty Inbox\");\n        } else {\n            emit inboxResponse(ipfs_hash);\n        }\n    }\n}\n",
  "sourcePath": "/home/usuario/Escritorio/TFG/ipfs-ethereum-tutorial/contracts/IPFSInbox.sol",
  "compiler": {
    "name": "solc",
    "version": "0.5.0+commit.1d4f565a.Emscripten.clang"
  },
  "schemaVersion": "3.0.1",
  "updatedAt": "2019-03-27T11:29:41.055Z",
  "devdoc": {
    "methods": {}
  },
  "userdoc": {
    "methods": {}
  }
}