{
  "contractName": "IPFSInbox",
  "abi": [
    {
      "inputs": [],
      "payable": false,
      "stateMutability": "nonpayable",
      "type": "constructor",
      "signature": "constructor"
    },
    {
      "anonymous": false,
      "inputs": [
        {
          "indexed": false,
          "name": "_ipfsHash",
          "type": "string"
        },
        {
          "indexed": false,
          "name": "_address",
          "type": "address"
        }
      ],
      "name": "ipfsUploaded",
      "type": "event",
      "signature": "0x2c6afc6ed4506bf5cfc1ce20f3a0fca33228207330e1d12513742190d620c8ff"
    },
    {
      "anonymous": false,
      "inputs": [
        {
          "indexed": false,
          "name": "response",
          "type": "string"
        }
      ],
      "name": "inboxResponse",
      "type": "event",
      "signature": "0x2974ec83b4de9f76155d0c3e88bd3c0645c56c1795807f37d3f9e95caafeee57"
    },
    {
      "constant": false,
      "inputs": [
        {
          "name": "_ipfsHash",
          "type": "string"
        },
        {
          "name": "_entity",
          "type": "string"
        },
        {
          "name": "_keywords",
          "type": "string"
        }
      ],
      "name": "newOffer",
      "outputs": [],
      "payable": false,
      "stateMutability": "nonpayable",
      "type": "function",
      "signature": "0xf1e4cf9a"
    },
    {
      "constant": false,
      "inputs": [
        {
          "name": "_ipfsHash",
          "type": "string"
        }
      ],
      "name": "uploadIPFS",
      "outputs": [],
      "payable": false,
      "stateMutability": "nonpayable",
      "type": "function",
      "signature": "0x90d523cb"
    },
    {
      "constant": false,
      "inputs": [],
      "name": "getIPFS",
      "outputs": [],
      "payable": false,
      "stateMutability": "nonpayable",
      "type": "function",
      "signature": "0x4efe2d1e"
    }
  ],
  "bytecode": "0x608060405234801561001057600080fd5b50610844806100206000396000f3fe608060405260043610610057576000357c0100000000000000000000000000000000000000000000000000000000900463ffffffff1680634efe2d1e1461005c57806390d523cb14610073578063f1e4cf9a1461013b575b600080fd5b34801561006857600080fd5b50610071610331565b005b34801561007f57600080fd5b506101396004803603602081101561009657600080fd5b81019080803590602001906401000000008111156100b357600080fd5b8201836020820111156100c557600080fd5b803590602001918460018302840111640100000000831117156100e757600080fd5b91908080601f016020809104026020016040519081016040528093929190818152602001838380828437600081840152601f19601f820116905080830192505050505050509192919290505050610523565b005b34801561014757600080fd5b5061032f6004803603606081101561015e57600080fd5b810190808035906020019064010000000081111561017b57600080fd5b82018360208201111561018d57600080fd5b803590602001918460018302840111640100000000831117156101af57600080fd5b91908080601f016020809104026020016040519081016040528093929190818152602001838380828437600081840152601f19601f8201169050808301925050505050505091929192908035906020019064010000000081111561021257600080fd5b82018360208201111561022457600080fd5b8035906020019184600183028401116401000000008311171561024657600080fd5b91908080601f016020809104026020016040519081016040528093929190818152602001838380828437600081840152601f19601f820116905080830192505050505050509192919290803590602001906401000000008111156102a957600080fd5b8201836020820111156102bb57600080fd5b803590602001918460018302840111640100000000831117156102dd57600080fd5b91908080601f016020809104026020016040519081016040528093929190818152602001838380828437600081840152601f19601f82011690508083019250505050505050919291929050505061064f565b005b60606000803373ffffffffffffffffffffffffffffffffffffffff1673ffffffffffffffffffffffffffffffffffffffff1681526020019081526020016000208054600181600116156101000203166002900480601f0160208091040260200160405190810160405280929190818152602001828054600181600116156101000203166002900480156104055780601f106103da57610100808354040283529160200191610405565b820191906000526020600020905b8154815290600101906020018083116103e857829003601f168201915b50505050509050600081511415610483577f2974ec83b4de9f76155d0c3e88bd3c0645c56c1795807f37d3f9e95caafeee5760405180806020018281038252600b8152602001807f456d70747920496e626f7800000000000000000000000000000000000000000081525060200191505060405180910390a1610520565b7f2974ec83b4de9f76155d0c3e88bd3c0645c56c1795807f37d3f9e95caafeee57816040518080602001828103825283818151815260200191508051906020019080838360005b838110156104e55780820151818401526020810190506104ca565b50505050905090810190601f1680156105125780820380516001836020036101000a031916815260200191505b509250505060405180910390a15b50565b6000339050816000808373ffffffffffffffffffffffffffffffffffffffff1673ffffffffffffffffffffffffffffffffffffffff168152602001908152602001600020908051906020019061057a9291906106f3565b507f2c6afc6ed4506bf5cfc1ce20f3a0fca33228207330e1d12513742190d620c8ff828260405180806020018373ffffffffffffffffffffffffffffffffffffffff1673ffffffffffffffffffffffffffffffffffffffff168152602001828103825284818151815260200191508051906020019080838360005b838110156106105780820151818401526020810190506105f5565b50505050905090810190601f16801561063d5780820380516001836020036101000a031916815260200191505b50935050505060405180910390a15050565b600060016000815480929190600101919050559050606060405190810160405280858152602001848152602001838152506002600083815260200190815260200160002060008201518160000190805190602001906106af929190610773565b5060208201518160010190805190602001906106cc929190610773565b5060408201518160020190805190602001906106e9929190610773565b5090505050505050565b828054600181600116156101000203166002900490600052602060002090601f016020900481019282601f1061073457805160ff1916838001178555610762565b82800160010185558215610762579182015b82811115610761578251825591602001919060010190610746565b5b50905061076f91906107f3565b5090565b828054600181600116156101000203166002900490600052602060002090601f016020900481019282601f106107b457805160ff19168380011785556107e2565b828001600101855582156107e2579182015b828111156107e15782518255916020019190600101906107c6565b5b5090506107ef91906107f3565b5090565b61081591905b808211156108115760008160009055506001016107f9565b5090565b9056fea165627a7a72305820664c022cfafbcd2aa1f3c04835e8e17a8702673c4a66428c9673c877e0f55e720029",
  "source": "pragma solidity ^0.5.0;\n\ncontract IPFSInbox {\n    \n    // Structures\n    mapping (address => string) ipfsInbox;\n\n    // Offer\n    struct Offer {\n        string ipfsHash;\n        string entity;\n        string keywords;\n    }\n\n    uint numOffers;\n    mapping (uint => Offer) offers;\n\n    function newOffer(string memory _ipfsHash, string memory _entity, string memory _keywords) public {\n        uint256 offerID = numOffers++;\n        offers[offerID] = Offer(_ipfsHash, _entity, _keywords);\n    }\n    \n    // Events\n    event ipfsUploaded(string _ipfsHash, address _address);\n    event inboxResponse(string response);\n    \n    // Modifiers\n    //modifier notFull (string _string) {bytes memory stringTest =  bytes(_string); require (stringTest.length == 0); _;}\n    \n    // An empty constructor that creates an instance of the contract\n    constructor() public {}\n    \n    function uploadIPFS(string memory _ipfsHash) public\n    {   \n        address owner = msg.sender;\n        ipfsInbox[owner] = _ipfsHash;\n        emit ipfsUploaded(_ipfsHash, owner);\n    }\n    \n    function getIPFS() public\n    {\n        string memory ipfs_hash = ipfsInbox[msg.sender];\n        if(bytes(ipfs_hash).length == 0) {\n            emit inboxResponse(\"Empty Inbox\");\n        } else {\n            emit inboxResponse(ipfs_hash);\n        }\n    }\n}\n",
  "sourcePath": "/home/usuario/Escritorio/TFG/ipfs-ethereum-tutorial/contracts/IPFSInbox.sol",
  "compiler": {
    "name": "solc",
    "version": "0.5.0+commit.1d4f565a.Emscripten.clang"
  },
  "schemaVersion": "3.0.1",
  "updatedAt": "2019-02-26T07:51:07.122Z",
  "devdoc": {
    "methods": {}
  },
  "userdoc": {
    "methods": {}
  }
}