{
  "contractName": "String",
  "abi": [
    {
      "constant": true,
      "inputs": [
        {
          "name": "_haystack",
          "type": "string"
        },
        {
          "name": "_needle",
          "type": "string"
        }
      ],
      "name": "indexOf",
      "outputs": [
        {
          "name": "",
          "type": "int256"
        }
      ],
      "payable": false,
      "stateMutability": "pure",
      "type": "function"
    }
  ],
  "bytecode": "0x610516610030600b82828239805160001a6073146000811461002057610022565bfe5b5030600052607381538281f3fe7300000000000000000000000000000000000000003014608060405260043610610058576000357c0100000000000000000000000000000000000000000000000000000000900463ffffffff1680638a0807b71461005d575b600080fd5b6101ad6004803603604081101561007357600080fd5b810190808035906020019064010000000081111561009057600080fd5b8201836020820111156100a257600080fd5b803590602001918460018302840111640100000000831117156100c457600080fd5b91908080601f016020809104026020016040519081016040528093929190818152602001838380828437600081840152601f19601f8201169050808301925050505050505091929192908035906020019064010000000081111561012757600080fd5b82018360208201111561013957600080fd5b8035906020019184600183028401116401000000008311171561015b57600080fd5b91908080601f016020809104026020016040519081016040528093929190818152602001838380828437600081840152601f19601f8201169050808301925050505050505091929192905050506101c3565b6040518082815260200191505060405180910390f35b6000606083905060608390506001825110806101e0575060018151105b806101ec575081518151115b1561021b577fffffffffffffffffffffffffffffffffffffffffffffffffffffffffffffffff925050506104e4565b6fffffffffffffffffffffffffffffffff8251111561025e577fffffffffffffffffffffffffffffffffffffffffffffffffffffffffffffffff925050506104e4565b600080905060008090505b83518110156104bc5782600081518110151561028157fe5b9060200101517f010000000000000000000000000000000000000000000000000000000000000090047f0100000000000000000000000000000000000000000000000000000000000000027effffffffffffffffffffffffffffffffffffffffffffffffffffffffffffff191684828151811015156102fc57fe5b9060200101517f010000000000000000000000000000000000000000000000000000000000000090047f0100000000000000000000000000000000000000000000000000000000000000027effffffffffffffffffffffffffffffffffffffffffffffffffffffffffffff191614156104af57600191505b82518210801561038657508351828201105b80156104875750828281518110151561039b57fe5b9060200101517f010000000000000000000000000000000000000000000000000000000000000090047f0100000000000000000000000000000000000000000000000000000000000000027effffffffffffffffffffffffffffffffffffffffffffffffffffffffffffff19168483830181518110151561041857fe5b9060200101517f010000000000000000000000000000000000000000000000000000000000000090047f0100000000000000000000000000000000000000000000000000000000000000027effffffffffffffffffffffffffffffffffffffffffffffffffffffffffffff1916145b15610499578180600101925050610374565b82518214156104ae57809450505050506104e4565b5b8080600101915050610269565b507fffffffffffffffffffffffffffffffffffffffffffffffffffffffffffffffff93505050505b9291505056fea165627a7a7230582093ec87425e2f0532f44d8c220a694215e4616a32c143f6de4b0f7e7411fc23590029",
  "source": "pragma solidity ^0.5.0;\n\nlibrary String {\n    function indexOf(string memory _haystack, string memory _needle) \n        public\n        pure\n        returns (int)\n    {\n    \tbytes memory h = bytes(_haystack);\n    \tbytes memory n = bytes(_needle);\n    \tif(h.length < 1 || n.length < 1 || (n.length > h.length)) \n    \t\treturn -1;\n    \telse if(h.length > (2**128 -1)) // since we have to be able to return -1 (if the char isn't found or input error), this function must return an \"int\" type with a max length of (2^128 - 1)\n    \t\treturn -1;\t\t\t\t\t\t\t\t\t\n    \telse\n    \t{\n    \t\tuint subindex = 0;\n    \t\tfor (uint i = 0; i < h.length; i ++)\n    \t\t{\n    \t\t\tif (h[i] == n[0]) // found the first char of b\n    \t\t\t{\n    \t\t\t\tsubindex = 1;\n    \t\t\t\twhile(subindex < n.length && (i + subindex) < h.length && h[i + subindex] == n[subindex]) // search until the chars don't match or until we reach the end of a or b\n    \t\t\t\t{\n    \t\t\t\t\tsubindex++;\n    \t\t\t\t}\t\n    \t\t\t\tif(subindex == n.length)\n    \t\t\t\t\treturn int(i);\n    \t\t\t}\n    \t\t}\n    \t\treturn -1;\n    \t}\t\n    }\n}\n\ncontract IPFSInbox {\n    using String for string;\n    \n    // Structures\n    mapping (address => string) ipfsInbox;\n\n    // Offer\n    struct Offer {\n        string ipfsHash;\n        string keywords;\n    }\n\n    uint numOffers;\n    mapping (uint => Offer) offers;\n\n    function newOffer(string memory _ipfsHash, string memory _keywords) public {\n        uint256 offerID = numOffers++;\n        offers[offerID] = Offer(_ipfsHash, _keywords);\n\n        emit claimFileUploaded(_ipfsHash, _keywords);\n    }\n\n    // function getOffersByScheme(string memory _keywords) public view returns (string[]) {\n\n    //     string[] ipfsHashes;\n        \n    //     for(uint i = 0; i < numOffers; i++) {\n    //         if(StringUtils.indexOf(offers[i].keywords, _keywords) != -1) {\n    //             ipfsHashes[i] = offers[i].ipfsHash;\n    //         }\n    //     }\n\n    //     return ipfsHashes;\n    // }\n\n    function getOffersByScheme(string memory _keywords) public {\n        \n        for(uint i = 0; i < numOffers; i++) {\n            if(String.indexOf(offers[i].keywords, _keywords) != -1) {\n                emit ipfsResponse(offers[i].ipfsHash);\n            }\n        }\n\n    }\n    \n    // Events\n    event claimFileUploaded(string _ipfsHash, string _keywords);\n    event ipfsResponse(string _ipfsHash);\n\n    event ipfsUploaded(string _ipfsHash, address _address);\n    event inboxResponse(string response);\n    \n    // Modifiers\n    //modifier notFull (string _string) {bytes memory stringTest =  bytes(_string); require (stringTest.length == 0); _;}\n    \n    // An empty constructor that creates an instance of the contract\n    constructor() public {}\n    \n    function uploadIPFS(string memory _ipfsHash) public\n    {   \n        address owner = msg.sender;\n        ipfsInbox[owner] = _ipfsHash;\n        emit ipfsUploaded(_ipfsHash, owner);\n    }\n    \n    function getIPFS() public\n    {\n        string memory ipfs_hash = ipfsInbox[msg.sender];\n        if(bytes(ipfs_hash).length == 0) {\n            emit inboxResponse(\"Empty Inbox\");\n        } else {\n            emit inboxResponse(ipfs_hash);\n        }\n    }\n}\n",
  "sourcePath": "/home/usuario/Escritorio/TFG/ipfs-ethereum-tutorial/contracts/IPFSInbox.sol",
  "compiler": {
    "name": "solc",
    "version": "0.5.0+commit.1d4f565a.Emscripten.clang"
  },
  "schemaVersion": "3.0.1",
  "updatedAt": "2019-04-15T08:59:44.687Z",
  "devdoc": {
    "methods": {}
  },
  "userdoc": {
    "methods": {}
  }
}